{
  "contractName": "ToDoList",
  "abi": [
    {
      "inputs": [
        {
          "internalType": "uint256",
          "name": "",
          "type": "uint256"
        }
      ],
      "name": "list",
      "outputs": [
        {
          "internalType": "string",
          "name": "",
          "type": "string"
        }
      ],
      "stateMutability": "view",
      "type": "function",
      "constant": true
    },
    {
      "inputs": [],
      "name": "name",
      "outputs": [
        {
          "internalType": "string",
          "name": "",
          "type": "string"
        }
      ],
      "stateMutability": "view",
      "type": "function",
      "constant": true
    },
    {
      "inputs": [],
      "name": "listGetter",
      "outputs": [
        {
          "internalType": "string[]",
          "name": "",
          "type": "string[]"
        }
      ],
      "stateMutability": "view",
      "type": "function",
      "constant": true
    },
    {
      "inputs": [
        {
          "internalType": "string",
          "name": "_todo",
          "type": "string"
        }
      ],
      "name": "add",
      "outputs": [],
      "stateMutability": "nonpayable",
      "type": "function"
    },
    {
      "inputs": [
        {
          "internalType": "uint256",
          "name": "_index",
          "type": "uint256"
        }
      ],
      "name": "remove",
      "outputs": [],
      "stateMutability": "nonpayable",
      "type": "function"
    },
    {
      "inputs": [
        {
          "internalType": "string",
          "name": "_todo",
          "type": "string"
        },
        {
          "internalType": "uint256",
          "name": "_index",
          "type": "uint256"
        }
      ],
      "name": "edit",
      "outputs": [],
      "stateMutability": "nonpayable",
      "type": "function"
    }
  ],
  "bytecode": "0x60806040526040518060400160405280600a81526020017f544f5f444f5f4c495354000000000000000000000000000000000000000000008152506000908051906020019062000051929190620000bd565b5060405180602001604052806040518060400160405280600a81526020017f666972737420746f646f000000000000000000000000000000000000000000008152508152506001906001620000a89291906200014e565b50348015620000b657600080fd5b50620002a7565b828054620000cb9062000271565b90600052602060002090601f016020900481019282620000ef57600085556200013b565b82601f106200010a57805160ff19168380011785556200013b565b828001600101855582156200013b579182015b828111156200013a5782518255916020019190600101906200011d565b5b5090506200014a9190620001b5565b5090565b828054828255906000526020600020908101928215620001a2579160200282015b82811115620001a157825182908051906020019062000190929190620000bd565b50916020019190600101906200016f565b5b509050620001b19190620001d4565b5090565b5b80821115620001d0576000816000905550600101620001b6565b5090565b5b80821115620001f85760008181620001ee9190620001fc565b50600101620001d5565b5090565b5080546200020a9062000271565b6000825580601f106200021e57506200023f565b601f0160209004906000526020600020908101906200023e9190620001b5565b5b50565b7f4e487b7100000000000000000000000000000000000000000000000000000000600052602260045260246000fd5b600060028204905060018216806200028a57607f821691505b60208210811415620002a157620002a062000242565b5b50919050565b610e1d80620002b76000396000f3fe608060405234801561001057600080fd5b50600436106100625760003560e01c806306fdde031461006757806319c93af914610085578063243c8e52146100a35780634cc82215146100bf57806380c9419e146100db578063b0c8f9dc1461010b575b600080fd5b61006f610127565b60405161007c91906107ad565b60405180910390f35b61008d6101b5565b60405161009a91906108db565b60405180910390f35b6100bd60048036038101906100b89190610a7c565b61028e565b005b6100d960048036038101906100d49190610ad8565b61035d565b005b6100f560048036038101906100f09190610ad8565b610475565b60405161010291906107ad565b60405180910390f35b61012560048036038101906101209190610b05565b610521565b005b6000805461013490610b7d565b80601f016020809104026020016040519081016040528092919081815260200182805461016090610b7d565b80156101ad5780601f10610182576101008083540402835291602001916101ad565b820191906000526020600020905b81548152906001019060200180831161019057829003601f168201915b505050505081565b60606001805480602002602001604051908101604052809291908181526020016000905b828210156102855783829060005260206000200180546101f890610b7d565b80601f016020809104026020016040519081016040528092919081815260200182805461022490610b7d565b80156102715780601f1061024657610100808354040283529160200191610271565b820191906000526020600020905b81548152906001019060200180831161025457829003601f168201915b5050505050815260200190600101906101d9565b50505050905090565b60008251116102d2576040517f08c379a00000000000000000000000000000000000000000000000000000000081526004016102c990610bfb565b60405180910390fd5b600180549050811080156102e7575060008110155b610326576040517f08c379a000000000000000000000000000000000000000000000000000000000815260040161031d90610c67565b60405180910390fd5b816001828154811061033b5761033a610c87565b5b9060005260206000200190805190602001906103589291906105a4565b505050565b60018054905081108015610372575060008110155b6103b1576040517f08c379a00000000000000000000000000000000000000000000000000000000081526004016103a890610c67565b60405180910390fd5b60008190505b600180805490506103c89190610ce5565b81101561044157600180826103dd9190610d19565b815481106103ee576103ed610c87565b5b906000526020600020016001828154811061040c5761040b610c87565b5b9060005260206000200190805461042290610b7d565b61042d92919061062a565b50808061043990610d6f565b9150506103b7565b50600180548061045457610453610db8565b5b60019003818190600052602060002001600061047091906106b7565b905550565b6001818154811061048557600080fd5b9060005260206000200160009150905080546104a090610b7d565b80601f01602080910402602001604051908101604052809291908181526020018280546104cc90610b7d565b80156105195780601f106104ee57610100808354040283529160200191610519565b820191906000526020600020905b8154815290600101906020018083116104fc57829003601f168201915b505050505081565b6000815111610565576040517f08c379a000000000000000000000000000000000000000000000000000000000815260040161055c90610bfb565b60405180910390fd5b6001819080600181540180825580915050600190039060005260206000200160009091909190915090805190602001906105a09291906105a4565b5050565b8280546105b090610b7d565b90600052602060002090601f0160209004810192826105d25760008555610619565b82601f106105eb57805160ff1916838001178555610619565b82800160010185558215610619579182015b828111156106185782518255916020019190600101906105fd565b5b50905061062691906106f7565b5090565b82805461063690610b7d565b90600052602060002090601f01602090048101928261065857600085556106a6565b82601f1061066957805485556106a6565b828001600101855582156106a657600052602060002091601f016020900482015b828111156106a557825482559160010191906001019061068a565b5b5090506106b391906106f7565b5090565b5080546106c390610b7d565b6000825580601f106106d557506106f4565b601f0160209004906000526020600020908101906106f391906106f7565b5b50565b5b808211156107105760008160009055506001016106f8565b5090565b600081519050919050565b600082825260208201905092915050565b60005b8381101561074e578082015181840152602081019050610733565b8381111561075d576000848401525b50505050565b6000601f19601f8301169050919050565b600061077f82610714565b610789818561071f565b9350610799818560208601610730565b6107a281610763565b840191505092915050565b600060208201905081810360008301526107c78184610774565b905092915050565b600081519050919050565b600082825260208201905092915050565b6000819050602082019050919050565b600082825260208201905092915050565b600061081782610714565b61082181856107fb565b9350610831818560208601610730565b61083a81610763565b840191505092915050565b6000610851838361080c565b905092915050565b6000602082019050919050565b6000610871826107cf565b61087b81856107da565b93508360208202850161088d856107eb565b8060005b858110156108c957848403895281516108aa8582610845565b94506108b583610859565b925060208a01995050600181019050610891565b50829750879550505050505092915050565b600060208201905081810360008301526108f58184610866565b905092915050565b6000604051905090565b600080fd5b600080fd5b600080fd5b600080fd5b7f4e487b7100000000000000000000000000000000000000000000000000000000600052604160045260246000fd5b61095382610763565b810181811067ffffffffffffffff821117156109725761097161091b565b5b80604052505050565b60006109856108fd565b9050610991828261094a565b919050565b600067ffffffffffffffff8211156109b1576109b061091b565b5b6109ba82610763565b9050602081019050919050565b82818337600083830152505050565b60006109e96109e484610996565b61097b565b905082815260208101848484011115610a0557610a04610916565b5b610a108482856109c7565b509392505050565b600082601f830112610a2d57610a2c610911565b5b8135610a3d8482602086016109d6565b91505092915050565b6000819050919050565b610a5981610a46565b8114610a6457600080fd5b50565b600081359050610a7681610a50565b92915050565b60008060408385031215610a9357610a92610907565b5b600083013567ffffffffffffffff811115610ab157610ab061090c565b5b610abd85828601610a18565b9250506020610ace85828601610a67565b9150509250929050565b600060208284031215610aee57610aed610907565b5b6000610afc84828501610a67565b91505092915050565b600060208284031215610b1b57610b1a610907565b5b600082013567ffffffffffffffff811115610b3957610b3861090c565b5b610b4584828501610a18565b91505092915050565b7f4e487b7100000000000000000000000000000000000000000000000000000000600052602260045260246000fd5b60006002820490506001821680610b9557607f821691505b60208210811415610ba957610ba8610b4e565b5b50919050565b7f6d75737420656e74657220736f6d657468696e67000000000000000000000000600082015250565b6000610be560148361071f565b9150610bf082610baf565b602082019050919050565b60006020820190508181036000830152610c1481610bd8565b9050919050565b7f696e646578206d69736d61746368000000000000000000000000000000000000600082015250565b6000610c51600e8361071f565b9150610c5c82610c1b565b602082019050919050565b60006020820190508181036000830152610c8081610c44565b9050919050565b7f4e487b7100000000000000000000000000000000000000000000000000000000600052603260045260246000fd5b7f4e487b7100000000000000000000000000000000000000000000000000000000600052601160045260246000fd5b6000610cf082610a46565b9150610cfb83610a46565b925082821015610d0e57610d0d610cb6565b5b828203905092915050565b6000610d2482610a46565b9150610d2f83610a46565b9250827fffffffffffffffffffffffffffffffffffffffffffffffffffffffffffffffff03821115610d6457610d63610cb6565b5b828201905092915050565b6000610d7a82610a46565b91507fffffffffffffffffffffffffffffffffffffffffffffffffffffffffffffffff821415610dad57610dac610cb6565b5b600182019050919050565b7f4e487b7100000000000000000000000000000000000000000000000000000000600052603160045260246000fdfea2646970667358221220d5eb066922d80928b1244efc0601513c24c6fe37246c75ced8eeedcf9e63fcff64736f6c63430008090033",
  "immutableReferences": {},
  "source": "// SPDX-License-Identifier: MIT\npragma solidity ^0.8.6;\n\ncontract ToDoList {\n  string public name = \"TO_DO_LIST\";\n  string[] public list = [\"first todo\"];\n\n  function listGetter() public view returns(string[] memory) {\n    return list;\n  }\n\n  function add(string memory _todo) public {\n    require(bytes(_todo).length > 0, \"must enter something\");\n    list.push(_todo);\n  }\n\n  function remove(uint _index) public {\n    require(_index < list.length && _index >= 0, \"index mismatch\");\n\n    for(uint i = _index; i < list.length - 1; i++) {\n      list[i] = list[i+1];\n    }\n\n    list.pop();\n  }\n\n  function edit(string memory _todo, uint _index) public {\n    require(bytes(_todo).length > 0, \"must enter something\");\n    require(_index < list.length && _index >= 0, \"index mismatch\");\n\n    list[_index] = _todo;\n  }\n}\n",
  "sourcePath": "/home/bukunjom/solidity/todolist/contracts/ToDoList.sol",
  "compiler": {
    "name": "solc",
    "version": "0.8.9+commit.e5eed63a.Emscripten.clang"
  },
  "schemaVersion": "3.4.1",
  "updatedAt": "2021-10-26T05:30:35.630Z",
  "networkType": "ethereum",
  "devdoc": {
    "kind": "dev",
    "methods": {},
    "version": 1
  },
  "userdoc": {
    "kind": "user",
    "methods": {},
    "version": 1
  }
}